{
    "_format": "hh-sol-artifact-1",
    "contractName": "UniswapV2Pair",
    "sourceName": "contracts/UniswapV2Pair.sol",
    "abi": [
        {
            "inputs": [],
            "stateMutability": "nonpayable",
            "type": "constructor"
        },
        {
            "anonymous": false,
            "inputs": [
                {
                    "indexed": true,
                    "internalType": "address",
                    "name": "spender",
                    "type": "address"
                },
                {
                    "indexed": false,
                    "internalType": "uint64",
                    "name": "value",
                    "type": "uint64"
                }
            ],
            "name": "Approve",
            "type": "event"
        },
        {
            "anonymous": false,
            "inputs": [
                {
                    "indexed": true,
                    "internalType": "address",
                    "name": "sender",
                    "type": "address"
                },
                {
                    "indexed": false,
                    "internalType": "uint256",
                    "name": "amount0",
                    "type": "uint256"
                },
                {
                    "indexed": false,
                    "internalType": "uint256",
                    "name": "amount1",
                    "type": "uint256"
                },
                {
                    "indexed": true,
                    "internalType": "address",
                    "name": "to",
                    "type": "address"
                }
            ],
            "name": "Burn",
            "type": "event"
        },
        {
            "anonymous": false,
            "inputs": [
                {
                    "indexed": true,
                    "internalType": "address",
                    "name": "sender",
                    "type": "address"
                },
                {
                    "indexed": false,
                    "internalType": "uint256",
                    "name": "amount0",
                    "type": "uint256"
                },
                {
                    "indexed": false,
                    "internalType": "uint256",
                    "name": "amount1",
                    "type": "uint256"
                }
            ],
            "name": "Mint",
            "type": "event"
        },
        {
            "anonymous": false,
            "inputs": [
                {
                    "indexed": true,
                    "internalType": "address",
                    "name": "sender",
                    "type": "address"
                },
                {
                    "indexed": false,
                    "internalType": "uint256",
                    "name": "amount0In",
                    "type": "uint256"
                },
                {
                    "indexed": false,
                    "internalType": "uint256",
                    "name": "amount1In",
                    "type": "uint256"
                },
                {
                    "indexed": false,
                    "internalType": "uint256",
                    "name": "amount0Out",
                    "type": "uint256"
                },
                {
                    "indexed": false,
                    "internalType": "uint256",
                    "name": "amount1Out",
                    "type": "uint256"
                },
                {
                    "indexed": true,
                    "internalType": "address",
                    "name": "to",
                    "type": "address"
                }
            ],
            "name": "Swap",
            "type": "event"
        },
        {
            "anonymous": false,
            "inputs": [
                {
                    "indexed": false,
                    "internalType": "uint112",
                    "name": "reserve0",
                    "type": "uint112"
                },
                {
                    "indexed": false,
                    "internalType": "uint112",
                    "name": "reserve1",
                    "type": "uint112"
                }
            ],
            "name": "Sync",
            "type": "event"
        },
        {
            "anonymous": false,
            "inputs": [
                {
                    "indexed": true,
                    "internalType": "address",
                    "name": "from",
                    "type": "address"
                },
                {
                    "indexed": true,
                    "internalType": "address",
                    "name": "to",
                    "type": "address"
                },
                {
                    "indexed": false,
                    "internalType": "uint64",
                    "name": "value",
                    "type": "uint64"
                }
            ],
            "name": "Transfer",
            "type": "event"
        },
        {
            "inputs": [],
            "name": "MINIMUM_LIQUIDITY",
            "outputs": [
                {
                    "internalType": "uint256",
                    "name": "",
                    "type": "uint256"
                }
            ],
            "stateMutability": "view",
            "type": "function"
        },
        {
            "inputs": [
                {
                    "internalType": "address",
                    "name": "to",
                    "type": "address"
                }
            ],
            "name": "burn",
            "outputs": [
                {
                    "internalType": "uint256",
                    "name": "amount0",
                    "type": "uint256"
                },
                {
                    "internalType": "uint256",
                    "name": "amount1",
                    "type": "uint256"
                }
            ],
            "stateMutability": "nonpayable",
            "type": "function"
        },
        {
            "inputs": [],
            "name": "createFungible",
            "outputs": [
                {
                    "internalType": "address",
                    "name": "",
                    "type": "address"
                }
            ],
            "stateMutability": "payable",
            "type": "function"
        },
        {
            "inputs": [],
            "name": "factory",
            "outputs": [
                {
                    "internalType": "address",
                    "name": "",
                    "type": "address"
                }
            ],
            "stateMutability": "view",
            "type": "function"
        },
        {
            "inputs": [],
            "name": "getReserves",
            "outputs": [
                {
                    "internalType": "uint112",
                    "name": "_reserve0",
                    "type": "uint112"
                },
                {
                    "internalType": "uint112",
                    "name": "_reserve1",
                    "type": "uint112"
                },
                {
                    "internalType": "uint32",
                    "name": "_blockTimestampLast",
                    "type": "uint32"
                }
            ],
            "stateMutability": "view",
            "type": "function"
        },
        {
            "inputs": [
                {
                    "internalType": "address",
                    "name": "_token0",
                    "type": "address"
                },
                {
                    "internalType": "address",
                    "name": "_token1",
                    "type": "address"
                }
            ],
            "name": "initialize",
            "outputs": [],
            "stateMutability": "nonpayable",
            "type": "function"
        },
        {
            "inputs": [],
            "name": "kLast",
            "outputs": [
                {
                    "internalType": "uint256",
                    "name": "",
                    "type": "uint256"
                }
            ],
            "stateMutability": "view",
            "type": "function"
        },
        {
            "inputs": [],
            "name": "lpToken",
            "outputs": [
                {
                    "internalType": "address",
                    "name": "",
                    "type": "address"
                }
            ],
            "stateMutability": "view",
            "type": "function"
        },
        {
            "inputs": [
                {
                    "internalType": "address",
                    "name": "to",
                    "type": "address"
                }
            ],
            "name": "mint",
            "outputs": [
                {
                    "internalType": "uint256",
                    "name": "liquidity",
                    "type": "uint256"
                }
            ],
            "stateMutability": "nonpayable",
            "type": "function"
        },
        {
            "inputs": [],
            "name": "price0CumulativeLast",
            "outputs": [
                {
                    "internalType": "uint256",
                    "name": "",
                    "type": "uint256"
                }
            ],
            "stateMutability": "view",
            "type": "function"
        },
        {
            "inputs": [],
            "name": "price1CumulativeLast",
            "outputs": [
                {
                    "internalType": "uint256",
                    "name": "",
                    "type": "uint256"
                }
            ],
            "stateMutability": "view",
            "type": "function"
        },
        {
            "inputs": [
                {
                    "internalType": "address",
                    "name": "to",
                    "type": "address"
                }
            ],
            "name": "skim",
            "outputs": [],
            "stateMutability": "nonpayable",
            "type": "function"
        },
        {
            "inputs": [
                {
                    "internalType": "uint256",
                    "name": "amount0Out",
                    "type": "uint256"
                },
                {
                    "internalType": "uint256",
                    "name": "amount1Out",
                    "type": "uint256"
                },
                {
                    "internalType": "address",
                    "name": "to",
                    "type": "address"
                },
                {
                    "internalType": "bytes",
                    "name": "data",
                    "type": "bytes"
                }
            ],
            "name": "swap",
            "outputs": [],
            "stateMutability": "nonpayable",
            "type": "function"
        },
        {
            "inputs": [],
            "name": "sync",
            "outputs": [],
            "stateMutability": "nonpayable",
            "type": "function"
        },
        {
            "inputs": [
                {
                    "internalType": "uint256",
                    "name": "tinycents",
                    "type": "uint256"
                }
            ],
            "name": "tinycentsToTinybars",
            "outputs": [
                {
                    "internalType": "uint256",
                    "name": "tinybars",
                    "type": "uint256"
                }
            ],
            "stateMutability": "nonpayable",
            "type": "function"
        },
        {
            "inputs": [],
            "name": "token0",
            "outputs": [
                {
                    "internalType": "address",
                    "name": "",
                    "type": "address"
                }
            ],
            "stateMutability": "view",
            "type": "function"
        },
        {
            "inputs": [],
            "name": "token1",
            "outputs": [
                {
                    "internalType": "address",
                    "name": "",
                    "type": "address"
                }
            ],
            "stateMutability": "view",
            "type": "function"
        }
    ],
    "bytecode": "0x6080604052600160085534801561001557600080fd5b50600080546001600160a01b03191633179055613350806100376000396000f3fe60806040526004361061010e5760003560e01c80635fcbd285116100a5578063ba9a7a5611610074578063c45a015511610059578063c45a0155146102b0578063d21220a7146102c5578063fff6cae9146102da5761010e565b8063ba9a7a561461027b578063bc25cf77146102905761010e565b80635fcbd285146102035780636a627842146102185780637464fc3d1461023857806389afcb441461024d5761010e565b80632e3cff6a116100e15780632e3cff6a1461018c578063485cc955146101b95780635909c0d5146101d95780635a3d5493146101ee5761010e565b8063022c0d9f146101135780630902f1ac146101355780630dfe1681146101625780632dbfa6e814610184575b600080fd5b34801561011f57600080fd5b5061013361012e366004612777565b6102ef565b005b34801561014157600080fd5b5061014a61070d565b6040516101599392919061322c565b60405180910390f35b34801561016e57600080fd5b50610177610737565b60405161015991906129db565b610177610746565b34801561019857600080fd5b506101ac6101a7366004612747565b610b11565b6040516101599190613255565b3480156101c557600080fd5b506101336101d4366004612535565b610bf9565b3480156101e557600080fd5b506101ac610ceb565b3480156101fa57600080fd5b506101ac610cf1565b34801561020f57600080fd5b50610177610cf7565b34801561022457600080fd5b506101ac6102333660046124fd565b610d06565b34801561024457600080fd5b506101ac6110d6565b34801561025957600080fd5b5061026d6102683660046124fd565b6110dc565b60405161015992919061325e565b34801561028757600080fd5b506101ac611571565b34801561029c57600080fd5b506101336102ab3660046124fd565b611577565b3480156102bc57600080fd5b5061017761169d565b3480156102d157600080fd5b506101776116ac565b3480156102e657600080fd5b506101336116bb565b60085460011461031a5760405162461bcd60e51b815260040161031190612e5f565b60405180910390fd5b60006008558415158061032d5750600084115b6103495760405162461bcd60e51b815260040161031190612bd8565b60008061035461070d565b5091509150816001600160701b0316871080156103795750806001600160701b031686105b6103955760405162461bcd60e51b815260040161031190612e02565b60015460025460009182916001600160a01b039182169190811690891682148015906103d35750806001600160a01b0316896001600160a01b031614155b6103ef5760405162461bcd60e51b815260040161031190612d5d565b8a156104015761040182308b8e611807565b89156104135761041381308b8d611807565b8615610499576040517f10d1e85c0000000000000000000000000000000000000000000000000000000081526001600160a01b038a16906310d1e85c906104669033908f908f908e908e906004016129ef565b600060405180830381600087803b15801561048057600080fd5b505af1158015610494573d6000803e3d6000fd5b505050505b6040516370a0823160e01b81526001600160a01b038316906370a08231906104c59030906004016129db565b60206040518083038186803b1580156104dd57600080fd5b505afa1580156104f1573d6000803e3d6000fd5b505050506040513d601f19601f82011682018060405250810190610515919061275f565b6040516370a0823160e01b81529094506001600160a01b038216906370a08231906105449030906004016129db565b60206040518083038186803b15801561055c57600080fd5b505afa158015610570573d6000803e3d6000fd5b505050506040513d601f19601f82011682018060405250810190610594919061275f565b92505050600089856001600160701b03160383116105b35760006105c2565b89856001600160701b03160383035b9050600089856001600160701b03160383116105df5760006105ee565b89856001600160701b03160383035b905060008211806105ff5750600081115b61061b5760405162461bcd60e51b815260040161031190612c92565b600061063d61062b846003611894565b610637876103e8611894565b906118d1565b9050600061064f61062b846003611894565b9050610674620f424061066e6001600160701b038b8116908b16611894565b90611894565b61067e8383611894565b101561069c5760405162461bcd60e51b815260040161031190612e96565b50506106aa848488886118f4565b886001600160a01b0316336001600160a01b03167fd78ad95fa46c994b6551d0da85fc275fe613ce37657fb8d5e3d130840159d82284848f8f6040516106f3949392919061326c565b60405180910390a350506001600855505050505050505050565b6004546001600160701b0380821692600160701b830490911691600160e01b900463ffffffff1690565b6001546001600160a01b031681565b600080546001600160a01b031633146107715760405162461bcd60e51b815260040161031190612fe4565b600061077b6123e0565b610786826004611a93565b30602083015260408051600180825281830190925291935060609190816020015b6107af612423565b8152602001906001900390816107a7579050509050604051806040016040528084815260200183815250816000815181106107e657fe5b60200260200101819052506107f9612442565b3060208201526276adf16040820152610810612462565b600154604080517f06fdde0300000000000000000000000000000000000000000000000000000000815290516060926001600160a01b0316916306fdde03916004808301926000929190829003018186803b15801561086e57600080fd5b505afa158015610882573d6000803e3d6000fd5b505050506040513d6000823e601f3d908101601f191682016040526108aa91908101906126bb565b90506060600260009054906101000a90046001600160a01b03166001600160a01b03166306fdde036040518163ffffffff1660e01b815260040160006040518083038186803b1580156108fc57600080fd5b505afa158015610910573d6000803e3d6000fd5b505050506040513d6000823e601f3d908101601f1916820160405261093891908101906126bb565b90506060600160009054906101000a90046001600160a01b03166001600160a01b03166395d89b416040518163ffffffff1660e01b815260040160006040518083038186803b15801561098a57600080fd5b505afa15801561099e573d6000803e3d6000fd5b505050506040513d6000823e601f3d908101601f191682016040526109c691908101906126bb565b90506060600260009054906101000a90046001600160a01b03166001600160a01b03166395d89b416040518163ffffffff1660e01b815260040160006040518083038186803b158015610a1857600080fd5b505afa158015610a2c573d6000803e3d6000fd5b505050506040513d6000823e601f3d908101601f19168201604052610a5491908101906126bb565b90508383604051602001610a6992919061295a565b60408051601f1981840301815291815290865251610a8d908390839060200161295a565b60408051601f1981840301815291815260208701919091523090860152610100850186905260e08501879052600080610ac887826008611aa0565b909250905060168214610ada57600080fd5b6003805473ffffffffffffffffffffffffffffffffffffffff19166001600160a01b0383161790559b9a5050505050505050505050565b60008060606101686001600160a01b0316632e3cff6a60e01b85604051602401610b3b9190613255565b60408051601f198184030181529181526020820180516001600160e01b03166001600160e01b0319909416939093179092529051610b79919061293e565b6000604051808303816000865af19150503d8060008114610bb6576040519150601f19603f3d011682016040523d82523d6000602084013e610bbb565b606091505b509150915081610bdd5760405162461bcd60e51b815260040161031190612d94565b80806020019051810190610bf1919061275f565b949350505050565b6000546001600160a01b03163314610c235760405162461bcd60e51b815260040161031190612fe4565b600180546001600160a01b0384811673ffffffffffffffffffffffffffffffffffffffff1992831617909255600280549284169290911691909117815560408051828152606080820183529290916020830190803683370190505090508281600081518110610c8e57fe5b60200260200101906001600160a01b031690816001600160a01b0316815250508181600181518110610cbc57fe5b60200260200101906001600160a01b031690816001600160a01b031681525050610ce63082611bcf565b505050565b60055481565b60065481565b6003546001600160a01b031681565b6000600854600114610d2a5760405162461bcd60e51b815260040161031190612e5f565b6000600881905580610d3a61070d565b506001546040516370a0823160e01b81529294509092506000916001600160a01b03909116906370a0823190610d749030906004016129db565b60206040518083038186803b158015610d8c57600080fd5b505afa158015610da0573d6000803e3d6000fd5b505050506040513d601f19601f82011682018060405250810190610dc4919061275f565b6002546040516370a0823160e01b81529192506000916001600160a01b03909116906370a0823190610dfa9030906004016129db565b60206040518083038186803b158015610e1257600080fd5b505afa158015610e26573d6000803e3d6000fd5b505050506040513d601f19601f82011682018060405250810190610e4a919061275f565b90506000610e61836001600160701b0387166118d1565b90506000610e78836001600160701b0387166118d1565b90506000610e868787611c00565b90506000600360009054906101000a90046001600160a01b03166001600160a01b03166318160ddd6040518163ffffffff1660e01b815260040160206040518083038186803b158015610ed857600080fd5b505afa158015610eec573d6000803e3d6000fd5b505050506040513d601f19601f82011682018060405250810190610f10919061275f565b905080610fb357610f2f6103e8610637610f2a8787611894565b611e00565b60035460008054929b50610f8b926001600160a01b039283169216906103e890805b50604051908082528060200260200182016040528015610f8557816020015b6060815260200190600190039081610f705790505b50611e52565b5050600354600054610fae916001600160a01b03908116913091166103e8611807565b610ff6565b610ff36001600160701b038916610fca8684611894565b81610fd157fe5b046001600160701b038916610fe68685611894565b81610fed57fe5b04611eeb565b98505b600089116110165760405162461bcd60e51b815260040161031190612f2a565b600354611030906001600160a01b03168b8b600080610f51565b505060035461104a906001600160a01b0316308c8c611807565b61105686868a8a6118f4565b81156110805760045461107c906001600160701b0380821691600160701b900416611894565b6007555b336001600160a01b03167f4c209b5fc8ad50758f13e2e1088ba56a560dff690a1c6fef26394f4c03821c4f85856040516110bb92919061325e565b60405180910390a25050600160085550949695505050505050565b60075481565b6000806008546001146111015760405162461bcd60e51b815260040161031190612e5f565b600060088190558061111161070d565b506001546002546040516370a0823160e01b81529395509193506001600160a01b039081169291169060009083906370a08231906111539030906004016129db565b60206040518083038186803b15801561116b57600080fd5b505afa15801561117f573d6000803e3d6000fd5b505050506040513d601f19601f820116820180604052508101906111a3919061275f565b90506000826001600160a01b03166370a08231306040518263ffffffff1660e01b81526004016111d391906129db565b60206040518083038186803b1580156111eb57600080fd5b505afa1580156111ff573d6000803e3d6000fd5b505050506040513d601f19601f82011682018060405250810190611223919061275f565b6003546040516370a0823160e01b81529192506000916001600160a01b03909116906370a08231906112599030906004016129db565b60206040518083038186803b15801561127157600080fd5b505afa158015611285573d6000803e3d6000fd5b505050506040513d601f19601f820116820180604052508101906112a9919061275f565b905060006112b78888611c00565b90506000600360009054906101000a90046001600160a01b03166001600160a01b03166318160ddd6040518163ffffffff1660e01b815260040160206040518083038186803b15801561130957600080fd5b505afa15801561131d573d6000803e3d6000fd5b505050506040513d601f19601f82011682018060405250810190611341919061275f565b90508061134e8487611894565b8161135557fe5b049a50806113638486611894565b8161136a57fe5b04995060008b11801561137d575060008a115b6113995760405162461bcd60e51b815260040161031190612ecd565b6003546040805160008152602081019091526113c2916001600160a01b0316908e908690611f03565b506113cf87308e8e611807565b6113db86308e8d611807565b6040516370a0823160e01b81526001600160a01b038816906370a08231906114079030906004016129db565b60206040518083038186803b15801561141f57600080fd5b505afa158015611433573d6000803e3d6000fd5b505050506040513d601f19601f82011682018060405250810190611457919061275f565b6040516370a0823160e01b81529095506001600160a01b038716906370a08231906114869030906004016129db565b60206040518083038186803b15801561149e57600080fd5b505afa1580156114b2573d6000803e3d6000fd5b505050506040513d601f19601f820116820180604052508101906114d6919061275f565b93506114e485858b8b6118f4565b811561150e5760045461150a906001600160701b0380821691600160701b900416611894565b6007555b8b6001600160a01b0316336001600160a01b03167fdccd412f0b1252819cb1fd330b93224ca42612892bb3f4f789976e6d819364968d8d60405161155392919061325e565b60405180910390a35050505050505050506001600881905550915091565b6103e881565b6008546001146115995760405162461bcd60e51b815260040161031190612e5f565b6000600855600154600254600480546040516370a0823160e01b81526001600160a01b03948516949093169261164692859230928892611641926001600160701b03169186916370a08231916115f1918891016129db565b60206040518083038186803b15801561160957600080fd5b505afa15801561161d573d6000803e3d6000fd5b505050506040513d601f19601f82011682018060405250810190610637919061275f565b611807565b600480546040516370a0823160e01b81526116939284923092889261164192600160701b90046001600160701b0316916001600160a01b038716916370a08231916115f1918891016129db565b5050600160085550565b6000546001600160a01b031681565b6002546001600160a01b031681565b6008546001146116dd5760405162461bcd60e51b815260040161031190612e5f565b60006008556001546040516370a0823160e01b8152611800916001600160a01b0316906370a08231906117149030906004016129db565b60206040518083038186803b15801561172c57600080fd5b505afa158015611740573d6000803e3d6000fd5b505050506040513d601f19601f82011682018060405250810190611764919061275f565b6002546040516370a0823160e01b81526001600160a01b03909116906370a08231906117949030906004016129db565b60206040518083038186803b1580156117ac57600080fd5b505afa1580156117c0573d6000803e3d6000fd5b505050506040513d601f19601f820116820180604052508101906117e4919061275f565b6004546001600160701b0380821691600160701b9004166118f4565b6001600855565b600061181d85858561181886611f95565b611fc3565b60030b9050601681146118425760405162461bcd60e51b815260040161031190612cef565b826001600160a01b0316846001600160a01b03167f831ac82b07fb396dafef0077cea6e002235d88e63f35cbd5df2c065107f1e74a846040516118859190613287565b60405180910390a35050505050565b60008115806118af575050808202828282816118ac57fe5b04145b6118cb5760405162461bcd60e51b815260040161031190612d26565b92915050565b808203828111156118cb5760405162461bcd60e51b815260040161031190612ba1565b6001600160701b03841180159061191257506001600160701b038311155b61192e5760405162461bcd60e51b8152600401610311906130af565b60045463ffffffff42811691600160e01b9004811682039081161580159061195e57506001600160701b03841615155b801561197257506001600160701b03831615155b156119dd578063ffffffff1661199a8561198b866120a3565b6001600160e01b0316906120b5565b600580546001600160e01b03929092169290920201905563ffffffff81166119c58461198b876120a3565b600680546001600160e01b0392909216929092020190555b600480546dffffffffffffffffffffffffffff19166001600160701b03888116919091177fffffffff0000000000000000000000000000ffffffffffffffffffffffffffff16600160701b8883168102919091176001600160e01b0316600160e01b63ffffffff87160217928390556040517f1c411e9a96e071241c2f21f7726b17ae89e3cab4c78be50e062b03a9fffbbad193611a8393818116939091041690613212565b60405180910390a1505050505050565b600160ff919091161b1790565b600080848061010001516000015163ffffffff166000148015611ad057506101008101516040015163ffffffff16155b15611ae6576101008101516276a7006040909101525b600060606101676001600160a01b031634637812a04b60e01b8a8a8a604051602401611b149392919061311d565b60408051601f198184030181529181526020820180516001600160e01b03166001600160e01b0319909416939093179092529051611b52919061293e565b60006040518083038185875af1925050503d8060008114611b8f576040519150601f19603f3d011682016040523d82523d6000602084013e611b94565b606091505b509150915081611ba75760156000611bbb565b80806020019051810190611bbb9190612589565b60039190910b999098509650505050505050565b6000611bdb83836120da565b60030b905060168114610ce65760405162461bcd60e51b815260040161031190612f87565b60008054604080517f017e7e58000000000000000000000000000000000000000000000000000000008152905183926001600160a01b03169163017e7e58916004808301926020929190829003018186803b158015611c5e57600080fd5b505afa158015611c72573d6000803e3d6000fd5b505050506040513d601f19601f82011682018060405250810190611c969190612519565b6007546001600160a01b038216158015945091925090611dec578015611de7576000611cd1610f2a6001600160701b03888116908816611894565b90506000611cde83611e00565b905080821115611de4576000611d7d611cf784846118d1565b600360009054906101000a90046001600160a01b03166001600160a01b03166318160ddd6040518163ffffffff1660e01b815260040160206040518083038186803b158015611d4557600080fd5b505afa158015611d59573d6000803e3d6000fd5b505050506040513d601f19601f8201168201806040525081019061066e919061275f565b90506000611d9683611d90866005611894565b906121b4565b90506000818381611da357fe5b0490508015611de057600354611dc6906001600160a01b03168883600080610f51565b5050600354611de0906001600160a01b0316308984611807565b5050505b50505b611df8565b8015611df85760006007555b505092915050565b60006003821115611e43575080600160028204015b81811015611e3d57809150600281828581611e2c57fe5b040181611e3557fe5b049050611e15565b50611e4d565b8115611e4d575060015b919050565b600060606000611e6b87611e65876121d7565b86612201565b90945092509050600381900b601614611e965760405162461bcd60e51b8152600401610311906130e6565b6001600160a01b03861660007f831ac82b07fb396dafef0077cea6e002235d88e63f35cbd5df2c065107f1e74a611ecc886121d7565b604051611ed99190613287565b60405180910390a35094509492505050565b6000818310611efa5781611efc565b825b9392505050565b600080611f1986611f13866121d7565b856122fb565b92509050600381900b601614611f415760405162461bcd60e51b81526004016103119061301b565b60006001600160a01b0386167f831ac82b07fb396dafef0077cea6e002235d88e63f35cbd5df2c065107f1e74a611f77876121d7565b604051611f849190613287565b60405180910390a350949350505050565b6000677fffffffffffffff821115611fbf5760405162461bcd60e51b815260040161031190612c35565b5090565b60008060606101676001600160a01b031663eca3691760e01b88888888604051602401611ff39493929190612a3c565b60408051601f198184030181529181526020820180516001600160e01b03166001600160e01b0319909416939093179092529051612031919061293e565b6000604051808303816000865af19150503d806000811461206e576040519150601f19603f3d011682016040523d82523d6000602084013e612073565b606091505b509150915081612084576015612098565b80806020019051810190612098919061256d565b979650505050505050565b6001600160701b0316600160701b0290565b60006001600160701b0382166001600160e01b038416816120d257fe5b049392505050565b60008060606101676001600160a01b0316632e63879b60e01b8686604051602401612106929190612a69565b60408051601f198184030181529181526020820180516001600160e01b03166001600160e01b0319909416939093179092529051612144919061293e565b6000604051808303816000865af19150503d8060008114612181576040519150601f19603f3d011682016040523d82523d6000602084013e612186565b606091505b5091509150816121975760156121ab565b808060200190518101906121ab919061256d565b95945050505050565b808201828110156118cb5760405162461bcd60e51b815260040161031190612dcb565b600067ffffffffffffffff821115611fbf5760405162461bcd60e51b815260040161031190613052565b6000806060600060606101676001600160a01b031663278e0b8860e01b89898960405160240161223393929190612ac3565b60408051601f198184030181529181526020820180516001600160e01b03166001600160e01b0319909416939093179092529051612271919061293e565b6000604051808303816000865af19150503d80600081146122ae576040519150601f19603f3d011682016040523d82523d6000602084013e6122b3565b606091505b5091509150816122d65760408051600080825260208201909252601591906122ea565b808060200190518101906122ea91906125eb565b919a90995090975095505050505050565b600080600060606101676001600160a01b031663acb9cff960e01b88888860405160240161232b93929190612b45565b60408051601f198184030181529181526020820180516001600160e01b03166001600160e01b0319909416939093179092529051612369919061293e565b6000604051808303816000865af19150503d80600081146123a6576040519150601f19603f3d011682016040523d82523d6000602084013e6123ab565b606091505b5091509150816123be57601560006123d2565b808060200190518101906123d291906125b7565b909890975095505050505050565b6040518060a0016040528060001515815260200160006001600160a01b03168152602001606081526020016060815260200160006001600160a01b031681525090565b60405180604001604052806000815260200161243d6123e0565b905290565b604080516060810182526000808252602082018190529181019190915290565b604051806101200160405280606081526020016060815260200160006001600160a01b0316815260200160608152602001600015158152602001600063ffffffff1681526020016000151581526020016060815260200161243d612442565b8051600381900b81146118cb57600080fd5b8051600781900b81146118cb57600080fd5b805167ffffffffffffffff811681146118cb57600080fd5b60006020828403121561250e578081fd5b8135611efc816132f3565b60006020828403121561252a578081fd5b8151611efc816132f3565b60008060408385031215612547578081fd5b8235612552816132f3565b91506020830135612562816132f3565b809150509250929050565b60006020828403121561257e578081fd5b8151611efc8161330b565b6000806040838503121561259b578182fd5b82516125a68161330b565b6020840151909250612562816132f3565b600080604083850312156125c9578182fd5b6125d384846124c1565b91506125e284602085016124e5565b90509250929050565b6000806000606084860312156125ff578081fd5b61260985856124c1565b92506020612619868287016124e5565b9250604085015167ffffffffffffffff80821115612635578384fd5b818701915087601f830112612648578384fd5b815181811115612656578485fd5b838102915061266684830161329c565b8181528481019084860184860187018c1015612680578788fd5b8795505b838610156126aa576126968c826124d3565b835260019590950194918601918601612684565b508096505050505050509250925092565b6000602082840312156126cc578081fd5b815167ffffffffffffffff808211156126e3578283fd5b818401915084601f8301126126f6578283fd5b815181811115612704578384fd5b612717601f8201601f191660200161329c565b915080825285602082850101111561272d578384fd5b61273e8160208401602086016132c3565b50949350505050565b600060208284031215612758578081fd5b5035919050565b600060208284031215612770578081fd5b5051919050565b60008060008060006080868803121561278e578081fd5b853594506020860135935060408601356127a7816132f3565b9250606086013567ffffffffffffffff808211156127c3578283fd5b818801915088601f8301126127d6578283fd5b8135818111156127e4578384fd5b8960208285010111156127f5578384fd5b9699959850939650602001949392505050565b6001600160a01b03169052565b6000815180845260208085018081965082840281019150828601855b858110156128ca5782840389528151604081518652868201519150808787015281511515818701528682015160606001600160a01b03808316828a015283850151935060a09250608083818b015261288c60e08b01866128dd565b928601518a8403603f1901858c01529294506128a885846128dd565b9501511660c09890980197909752505098850198935090840190600101612831565b5091979650505050505050565b15159052565b600081518084526128f58160208601602086016132c3565b601f01601f19169290920160200192915050565b805163ffffffff90811683526020808301516001600160a01b03169084015260409182015116910152565b63ffffffff169052565b600082516129508184602087016132c3565b9190910192915050565b60007f73734c502d000000000000000000000000000000000000000000000000000000825283516129928160058501602088016132c3565b7f2d0000000000000000000000000000000000000000000000000000000000000060059184019182015283516129cf8160068401602088016132c3565b01600601949350505050565b6001600160a01b0391909116815260200190565b60006001600160a01b038716825285602083015284604083015260806060830152826080830152828460a084013781830160a090810191909152601f909201601f19160101949350505050565b6001600160a01b03948516815292841660208401529216604082015260079190910b606082015260800190565b6000604082016001600160a01b03808616845260206040818601528286518085526060870191508288019450855b81811015612ab5578551851683529483019491830191600101612a97565b509098975050505050505050565b6000606082016001600160a01b0386168352602067ffffffffffffffff8616818501526060604085015281855180845260808601915060808382028701019350828701855b82811015612b3657607f19888703018452612b248683516128dd565b95509284019290840190600101612b08565b50939998505050505050505050565b6000606082016001600160a01b0386168352602067ffffffffffffffff861681850152606060408501528185518084526080860191508287019350845b81811015612ab557845160070b83529383019391830191600101612b82565b60208082526015908201527f64732d6d6174682d7375622d756e646572666c6f770000000000000000000000604082015260600190565b60208082526025908201527f556e697377617056323a20494e53554646494349454e545f4f55545055545f4160408201527f4d4f554e54000000000000000000000000000000000000000000000000000000606082015260800190565b60208082526027908201527f53616665436173743a2076616c756520646f65736e27742066697420696e206160408201527f6e20696e74363400000000000000000000000000000000000000000000000000606082015260800190565b60208082526024908201527f556e697377617056323a20494e53554646494349454e545f494e5055545f414d60408201527f4f554e5400000000000000000000000000000000000000000000000000000000606082015260800190565b6020808252601b908201527f5361666520746f6b656e207472616e73666572206661696c6564210000000000604082015260600190565b60208082526014908201527f64732d6d6174682d6d756c2d6f766572666c6f77000000000000000000000000604082015260600190565b60208082526015908201527f556e697377617056323a20494e56414c49445f544f0000000000000000000000604082015260600190565b6020808252601b908201527f54696e7963656e7473546f54696e7962617273206661696c6564210000000000604082015260600190565b60208082526014908201527f64732d6d6174682d6164642d6f766572666c6f77000000000000000000000000604082015260600190565b60208082526021908201527f556e697377617056323a20494e53554646494349454e545f4c4951554944495460408201527f5900000000000000000000000000000000000000000000000000000000000000606082015260800190565b60208082526011908201527f556e697377617056323a204c4f434b4544000000000000000000000000000000604082015260600190565b6020808252600c908201527f556e697377617056323a204b0000000000000000000000000000000000000000604082015260600190565b60208082526028908201527f556e697377617056323a20494e53554646494349454e545f4c4951554944495460408201527f595f4255524e4544000000000000000000000000000000000000000000000000606082015260800190565b60208082526028908201527f556e697377617056323a20494e53554646494349454e545f4c4951554944495460408201527f595f4d494e544544000000000000000000000000000000000000000000000000606082015260800190565b60208082526022908201527f53616665206d756c7469706c65206173736f63696174696f6e73206661696c6560408201527f6421000000000000000000000000000000000000000000000000000000000000606082015260800190565b60208082526014908201527f556e697377617056323a20464f5242494444454e000000000000000000000000604082015260600190565b60208082526011908201527f53616665206275726e206661696c656421000000000000000000000000000000604082015260600190565b60208082526026908201527f53616665436173743a2076616c756520646f65736e27742066697420696e203660408201527f3420626974730000000000000000000000000000000000000000000000000000606082015260800190565b60208082526013908201527f556e697377617056323a204f564552464c4f5700000000000000000000000000604082015260600190565b60208082526011908201527f53616665206d696e74206661696c656421000000000000000000000000000000604082015260600190565b600060608252845161016080606085015261313c6101c08501836128dd565b91506020870151605f198086850301608087015261315a84836128dd565b93506040890151915061317060a0870183612808565b60608901519150808685030160c087015261318b84836128dd565b9350608089015191506131a160e08701836128d7565b60a089015191506101006131b781880184612934565b60c08a015192506131cc6101208801846128d7565b60e08a0151925081878603016101408801526131e88584612815565b9450808a0151925050506131fe82860182612909565b505060208301949094525060400152919050565b6001600160701b0392831681529116602082015260400190565b6001600160701b03938416815291909216602082015263ffffffff909116604082015260600190565b90815260200190565b918252602082015260400190565b93845260208401929092526040830152606082015260800190565b67ffffffffffffffff91909116815260200190565b60405181810167ffffffffffffffff811182821017156132bb57600080fd5b604052919050565b60005b838110156132de5781810151838201526020016132c6565b838111156132ed576000848401525b50505050565b6001600160a01b038116811461330857600080fd5b50565b8060030b811461330857600080fdfea2646970667358221220d04ae13a6859921449fe3a19a2f6567bbac3194d9781c5b97737b02355135c9a64736f6c634300060c0033",
    "linkReferences": {},
    "deployedLinkReferences": {}
}